:020000040800F2
:1000000048060020010100085F190008F9160008E1
:100010005D190008B9010008F51C00080000000087
:10002000000000000000000000000000631900084C
:10003000BB010008000000006119000865190008F4
:100040001B0100081B0100081B0100081B01000820
:100050001B0100081B0100081B0100081B01000810
:100060001B0100081B0100081B0100081B01000800
:100070001B0100081B0100081B0100081B010008F0
:100080001B0100081B0100081B0100081B010008E0
:100090001B0100081B0100081B0100081B010008D0
:1000A000111A00081D1A00081B0100081B01000896
:1000B0001B0100081B0100081B0100081B010008B0
:1000C0001B0100081B0100081B0100081B010008A0
:1000D0001B0100081B010008DD1C0008E91C0008CA
:1000E0001B0100081B0100081B010008DFF80CD0F1
:1000F00000F02AF800480047351D00084806002097
:100100000648804706480047FEE7FEE7FEE7FEE7B1
:10011000FEE7FEE7FEE7FEE7FEE7FEE7C919000897
:10012000ED000008D2B201E000F8012B491EFBD21D
:1001300070470022F6E710B513460A4604461946F2
:10014000FFF7F0FF204610BD064C074D06E0E068C3
:1001500040F0010394E8070098471034AC42F6D30E
:10016000FFF7C8FF581E0008781E000870B5044647
:1001700000688168C943C9071CD1816821F0010169
:10018000816000F0A7FA05460FE000BF00F0A2FA78
:10019000401B022809D9A06A40F01000A062E06A62
:1001A00040F00100E062012070BD20688068C0431B
:1001B000C007EBD0002070BDFEE77047F8B5002403
:1001C000009490F824202546012A12D0012280F8BC
:1001D00024204A681F23072A0DD20668776B521E17
:1001E00002EB820293409F430B6893401F43776367
:1001F00019E00220F8BD06680D2A0AD2376BD21F1B
:1002000002EB820293409F430B6893401F43376386
:1002100009E0F76A0D3A02EB820293409F430B68B4
:1002200093401F43F7620A68072306680A2A0AD325
:10023000F7680A3A02EB420293409F438B6893406F
:100240001F43F76008E0376902EB420293409F4387
:100250008B6893401F4337610A68102A01D0112A26
:1002600020D1124B02689A4217D193681B0219D40D
:10027000936843F4000393600968102912D10C4974
:100280000C4A0968B1FBF2F101EB8101490000E081
:10029000491E00910029FBD104E0816A41F0200150
:1002A0008162012480F824502046F8BD00240140DA
:1002B0001000002040420F002DE9F0414FF00007F0
:1002C00004003D467ED0A06A002628B9E66284F884
:1002D0002460204600F07EF82046FFF747FFA16A21
:1002E000C90600D420B1A06A40F01000A06269E005
:1002F000A16A21F4885141F00201A1626268E169BA
:10030000237B0A4347EA43010A43A1684FF48077FD
:10031000B94209D0012907D05FF0000194F814C058
:10032000BCF1010F02D00AE03946F7E7F3B1A36A46
:1003300043F02003A362E36A43F00103E36223680E
:10034000D3F804C02CF4694C4CEA010CC3F804C087
:1003500021688B68DFF870C003EA0C0313438B60DD
:10036000A168B9420BD0012909D00CE0DFF85CC0CC
:10037000A3690CEB43330B4343F40061DFE7218AAD
:100380000D05A5F580152168CB6A23F470032B4376
:10039000CB62216889680E4B1940914208D1E66210
:1003A000A16A21F0020141F00101A162BDE8F081E2
:1003B000A06A20F0020040F01000A062E06A40F065
:1003C0000100E0620120F1E7FDF7E1FF00E0FFFF3F
:1003D000FE0E1FFF00B585B0002100910191029132
:1003E000039100680E49884218D10E48816941F492
:1003F00000718161816901F400710491816941F0AA
:10040000080181618069694600F0080004900120BC
:10041000009003200190044800F066F805B000BD8C
:100420000024014000100240000C014010B590F87B
:1004300021100024022903D00421816301243DE01E
:1004400001680A6822F00E020A6001680A6822F058
:1004500001020A601A4A0168914201D1012121E09A
:10046000174A1432914201D110211BE0144A28325C
:10047000914201D1891515E0114A3C32914201D1D6
:1004800089140FE00E4A5032914202D14FF480316C
:1004900008E00B4A6432914202D14FF4801101E02E
:1004A0004FF08071064A083A5160012180F821100E
:1004B000002180F82010416B01B18847204610BD13
:1004C0000800024070B5044600F004F90546601CBF
:1004D00002D004480078044400F0FCF8401BA0421D
:1004E000FAD370BD000000202DE9F84FDFF8B89175
:1004F000002409F1040A0AF1040B23460F270BF12B
:10050000040EC9E00125A5402A40AA427DD1674ECC
:10051000D1F804C0ACEB0608B44532D014DCBCF111
:10052000030F3AD009DCBCF1000F2AD0BCF1010F57
:100530001CD0BCF1020F31D11DE0BCF1110F17D05E
:10054000BCF1120F2AD119E0B8F5881F19D006DCCA
:10055000B8F5803F15D0B8F5801F1FD111E0B8F570
:10056000001F0ED0B8F5041F18D10AE0CB6815E0C3
:10057000CB681B1D12E0CB6808330FE0CB680C334F
:100580000CE08B682BB1012B4FF0080303D04561C1
:1005900004E0042302E0056100E00023FF2A01D803
:1005A000064601E000F104064FEA840501D9A5F1F1
:1005B0002005D6F8008007FA05FC28EA0C0803FAA3
:1005C00005F548EA0508C6F800804D68ED0062D5DB
:1005D000374DAE6946F00106AE61AD6924F0030601
:1005E00005F001050095334D06EB050CDCF80850CD
:1005F000A607360F07FA06F825EA0805DFF8B880DF
:10060000404503D14FF0000817E044E0DFF8AC802C
:10061000404502D14FF001080FE0DFF8A4804045CB
:1006200002D14FF0020808E0DFF89880404502D17F
:100630004FF0030801E04FF0040808FA06F848EA12
:100640000508CCF808804D68D9F80060ED034D46E8
:1006500001D5164300E096432E604D68DAF800603D
:10066000AD03554601D5164300E096432E604D6814
:10067000DBF80060ED025D4601D5164300E09643CD
:100680002E604D68DEF80060AD02754601D5164358
:1006900000E096432E60641C0D682A46E5407FF416
:1006A00031AFBDE8F88F00000004014000001110D8
:1006B000001002400000014000080140000C014011
:1006C00000100140001401400AB1016170470904A3
:1006D000FBE7000001488068704700000000002030
:1006E00070B504001BD094F83D00002520B984F8B3
:1006F0003C50204600F0AEF8242084F83D002068ED
:10070000016821F00101016000F098FA4D4A61682A
:10071000914201D84C4900E04C49884201D2012065
:1007200070BD4B492368B0FBF1F15E6826F03F06CF
:100730000E435E606368934206D94FF49673594343
:100740004FF47A73B1FBF3F12368491C1E6A26F05B
:100750003F06314319626168914210D84900401E3A
:10076000B0FBF1F2521CC2F30B02042A01D20420A6
:1007700022E0B0FBF1F0401CC0F30B001CE0A368CA
:10078000F3B301EBC10202EB0116421EB2FBF6F21B
:10079000521C42F48042120549D093B301EBC102CE
:1007A00002EB0111401EB0FBF1F0401CC0F30B0046
:1007B00040F4804040F400402168CA694CF6FF7361
:1007C0009A431043C861D4E90701084321680A68C5
:1007D00022F0C00210430860D4E9030101432068FD
:1007E000826848F2FF339A4311438160D4E90501DE
:1007F00008432168CA6822F0FF021043C86001E084
:100800000EE016E02068016841F0010101602564F6
:10081000202084F83D00256384F83E50002070BD00
:1008200001EB4106421EB2FBF6F2521CB3E7012077
:10083000C2E701EB4101401EB0FBF1F0401CC0F3E8
:100840000B00B7E7A086010080841E0000093D0070
:1008500040420F0030B585B0002100910191029116
:1008600003911E4D03681E4C122103221D48AB420A
:1008700016D1A36943F00803A361A369039203F0AF
:1008800008030493C023CDE900316946FFF72CFE2D
:10089000E06940F40010E061E06900F4001019E044
:1008A000114DAB4217D1A36943F00803A361A369BB
:1008B000039203F0080304934FF44063CDE9003141
:1008C0006946FFF711FEE06940F48000E061E069ED
:1008D00000F48000049005B030BD000000540040DA
:1008E00000100240000C014000580040024881689E
:1008F000027811448160704700000020074810B55D
:10090000016841F010010160032000F079F8002037
:1009100000F006F800F024F8002010BD002002408E
:1009200070B50D4D04464FF47A712878B1FBF0F0A4
:100930000A490968B1FBF0F000F0DEFB48B9102C61
:1009400007D200222146501E00F03AF800206C60C9
:1009500070BD012070BD00000000002010000020CC
:100960000E4808B5816941F001018161816901F09A
:1009700001010091C16941F08051C161C06900F07D
:1009800080500090052000F03BF80548416821F0B8
:10099000E06141F00071416008BD000000100240BC
:1009A00000000140002809DB00F01F0201219140F6
:1009B0004009800000F1E020C0F8001170470000FD
:1009C000F0B40E4B1B680C46C3F30223C3F10705BA
:1009D000042D00D90425191D072901D2002300E0A8
:1009E000DB1E012606FA05F1491E214099409E4072
:1009F000761E16403143F0BC01F07DB90CED00E0ED
:100A0000064900F0070208684FF6FF03184040EA65
:100A10000220034A10430860704700000CED00E01C
:100A20000000FA052DE9F84305460078354CC0076B
:100A300054D0E0690026C00008D4E06940F080503E
:100A4000E061E069012600F0805000902E480168C6
:100A5000C90512D40168804641F480710160FFF736
:100A600039FE074605E000BFFFF734FEC01B6428CF
:100A700023D8D8F80000C005F6D5206A10F44070DD
:100A800021D0A98801F4407181421CD0206A1F49FD
:100A9000012220F440700A6000220A602062C00730
:100AA00011D0FFF717FE074641F2883808E000BF73
:100AB000FFF710FEC11B414502D90320BDE8F883B2
:100AC000206A8007F4D5206A696820F440700843E2
:100AD00020621EB1E06920F08050E0612878800734
:100AE00005D56068A96820F4404008436060287814
:100AF000C00605D56068E96820F48000084360609E
:100B00000020DBE700100240007000404004424239
:100B10002DE9F0470F46050061D0434E306800F0E4
:100B20000700B84209D2306820F00700384330602F
:100B3000306800F00700B84251D128683B4C81076B
:100B400012D5400703D5606840F4E0606060287803
:100B5000000703D5606840F4605060606068A96871
:100B600020F0F000084360602878C00728D068684B
:100B7000012810D02168022810D0890700292EDA18
:100B8000616821F0030101436160FFF7A3FD804626
:100B900041F288390DE021688903EFE78901EDE72B
:100BA000FFF798FDA0EB0801494502D90320BDE8F5
:100BB000F0876068696800F00C00B0EB810FEFD13E
:100BC000306800F00700B8420BD9306820F0070009
:100BD00038433060306800F00700B84201D001208F
:100BE000E5E72878400705D56068E96820F4E0600B
:100BF000084360602878000706D56068296920F4FA
:100C0000605040EAC100606000F038F86168084A4E
:100C1000C1F30311515CC8400649086006480068EA
:100C2000FFF77EFE0020C2E70020024000100240D5
:100C3000401E000810000020040000200448054960
:100C400000684968044AC1F30221515CC8407047FA
:100C50001000002000100240501E00080448054902
:100C600000684968044AC1F3C221515CC84070471A
:100C70001000002000100240501E000812A185B094
:100C80000FC98DE80F0014A0144A00680490516841
:100C9000134801F00C03042B10D0082B0ED1C1F324
:100CA0008343C9031DF803000AD5516804AAC1F3A0
:100CB0004041515C0A4A5043B0FBF1F005B0704727
:100CC00008494843FAE7000002030405060708093B
:100CD0000A0B0C0D0E0F1010010200000010024054
:100CE00000127A0000093D002DE9F84F040070D091
:100CF0002078C04DC00749D06868C0F38100012842
:100D000007D06868C0F38100022809D16868C00371
:100D100006D52868800339D560680028E7D035E01B
:100D20006068B0F5803F0BD010B1B0F5A02F11D0A6
:100D3000286820F480302860286820F4802002E0B1
:100D4000286840F480302860606890B1FFF7C2FCEA
:100D500006460AE0286840F480202860F0E700BFDB
:100D6000FFF7B8FC801B642873D828688003F7D588
:100D70000CE0FFF7AFFC064605E000BFFFF7AAFC5A
:100D8000801B6428F0D828688003F7D420789A4E16
:100D900080074FF001094FF0000839D5686810F05E
:100DA0000C0F07D06868C0F38100022809D1686879
:100DB000C00306D42868800714D52069012808D10B
:100DC00010E02069B0B1C6F80090FFF783FC074639
:100DD00005E00AE1FFF77EFCC01B0228C4D82868A2
:100DE0008007F7D52868616920F0F80040EAC10063
:100DF00028600DE0C6F80080FFF76CFC074604E0B1
:100E0000FFF768FCC01B022823D828688007F7D4A6
:100E1000207800072CD57948A169D9B1C0F8009095
:100E2000FFF758FC074604E0FFF754FCC01B0228FC
:100E30000FD8686A8007F7D571484FF4FA510068F7
:100E4000B0FBF1F0009000BF0098411E0091FAD273
:100E50000EE080E0C0F80080FFF73CFC074604E0AD
:100E6000FFF738FCC01B022875D8686A8007F7D4E2
:100E70002078400760D5E8690027C00008D4E869F9
:100E800040F08050E861E869012700F08050009050
:100E90005C480168C90513D40168834641F4807138
:100EA0000160FFF717FC824606E000BFFFF712FC67
:100EB000A0EB0A0064284ED8DBF80000C005F5D589
:100EC000E06801280AD008B1052813D0286A20F06C
:100ED00001002862286A20F0040002E0286A40F03D
:100EE00001002862E06841F2883B98B1FFF7F2FB0D
:100EF00082460BE0286A40F004002862EEE700BF5B
:100F0000FFF7E8FBA0EB0A0159455AD8286A800789
:100F1000F6D50CE0FFF7DEFB824605E0FFF7DAFBD3
:100F2000A0EB0A0159454CD8286A8007F6D41FB1B6
:100F3000E86920F08050E861E06988B36968C1F32E
:100F40008101022944D00228C6F8608004D0FFF74E
:100F5000C1FB044638E034E0FFF7BCFB074604E081
:100F6000FFF7B8FBC01B02282BD828688001F7D4F4
:100F7000206AB0F5803F05D16868A16820F4003090
:100F800008436860D4E908010843696821F47411D2
:100F900008436860C6F86090FFF79CFB044606E0D3
:100FA00025E000BFFFF796FB001B022809D8286840
:100FB0008001F7D51BE000BFFFF78CFB001B022868
:100FC00002D90320BDE8F88F28688001F4D40EE030
:100FD0000128F7D06868226A00F48031914204D178
:100FE000616A00F47010884201D00120EAE7002015
:100FF000E8E7000000100240000042428004424244
:10100000100000200070004070B5040005D00025DD
:10101000A56294F8510010B106E0012070BD84F87B
:101020005050204600F02EF8022084F8510020682D
:10103000016821F040010160D4E901010843D4E9CD
:1010400003121143084361690843218B01F40071C5
:101050000843E1690843216A0843A16A08432168FB
:101060000860A069042101EA1040216848602068F6
:10107000C16921F40061C1616565012084F85100F6
:10108000002070BD30B585B0002400940194029416
:10109000039400681549884225D11548C16941F477
:1010A0008041C161C16901F480410491816941F0CD
:1010B0000801816180690F4D00F0080004904FF431
:1010C00020400090022001900320039069462846AA
:1010D000FFF70AFA4FF48040CDE90004694628463C
:1010E0000294FFF701FA05B030BD0000003800405F
:1010F00000100240000C014010B5401EB0F1807F8E
:1011000001D3012010BD4FF0E02460610F21601772
:1011100000F0F1FD0020A06107202061002010BD3B
:101120007047704770B590F83C20012A19D001240F
:1011300000F83C4F0222427050F83C3C5A689D68CF
:1011400022F070060A684968324325F08005294379
:101150005A6050F83C2C91604470002101700846A0
:1011600070BD022070BD10B5040003D094F83D009E
:1011700010B107E0012010BD002084F83C0020469B
:1011800000F00CF8022084F83D00211D206800F0DA
:101190004BFC012084F83D00002010BD08B500681C
:1011A0000B49884212D10B48816941F40061816189
:1011B0008069022200F40060009001211820FFF7EE
:1011C000FFFBBDE808401820FFF7ECBB08BD00009E
:1011D000002C0140001002400168CA6842F0010280
:1011E000CA600068816801F00701062903D0016820
:1011F00041F0010101600020704770B5044690F88D
:101200003C00012817D0012584F83C50022084F8C6
:101210003D002068826822F0770222F47F428260DB
:101220000868502830D00DDC20284DD005DC98B35C
:1012300010283BD148E0022070BD302844D040281F
:1012400034D139E0602828D0702806D0B0F5805F0E
:101250002CD0B0F5005F29D10AE0CB68D1E901219B
:10126000206800F017FC2068816841F0770109E0F0
:10127000CB68D1E90121206800F00CFC206881686E
:1012800041F48041816011E0CA684968206800F03B
:1012900013FC5021206807E016E0CA6849682068FE
:1012A00000F01BFC6021206800F0FEFB84F83D503C
:1012B000002084F83C0070BDCA684968206800F0CE
:1012C000FBFB40212068EFE7226801461046EBE770
:1012D000704770B50446006801694FF00005C943C6
:1012E000890715D4C168C943890711D4E91E016172
:1012F00001202077206880698007204602D0FFF710
:10130000E7FF04E000F098F8204600F096F8257713
:1013100020680169C943490717D4C168C94349070F
:1013200013D46FF0040101610220207720688069E6
:1013300010F4407F204602D0FFF7CAFF04E000F01F
:101340007BF8204600F079F8257720680169C943C9
:10135000090716D4C168C943090712D46FF0080100
:101360000161042020772068C0698007204602D0F0
:10137000FFF7AEFF04E000F05FF8204600F05DF8F4
:10138000257720680169C943C90617D4C168C943D4
:10139000C90613D46FF0100101610820207720687E
:1013A000C06910F4407F204602D0FFF791FF04E0AF
:1013B00000F042F8204600F040F8257720680169E7
:1013C000C943C90708D1C168C943C90704D1891EE7
:1013D0000161204600F032F820680169C94309061E
:1013E00009D4C168C943090605D46FF080010161C1
:1013F0002046FFF795FE20680169C943490609D4D4
:10140000C168C943490605D46FF040010161204617
:1014100000F02AF820680169C94389060BD4C16825
:10142000C943890607D46FF0200101612046BDE859
:101430007040FFF776BE70BD7047704710B5084C1E
:101440000848216831B101221146FFF73DF900201B
:10145000206010BD00220121FFF736F90120F7E7D7
:101460000C000020000801407047704770B502680A
:1014700004461068D168536910F00F0F50D003F084
:10148000010501F4907635435DD0C20705D0CA0549
:1014900003D5E26B42F00102E263420705D5DA07A9
:1014A00003D0E26B42F00202E263820705D5DA075D
:1014B00003D0E26B42F00402E263020705D5DA07CB
:1014C00003D0E26B42F00802E263E26B002A33D001
:1014D000800604D5880602D5204600F026FB206849
:1014E0004069E16BC0F38010090700D428B320469F
:1014F00000F00DFB2068416949061AD5416921F0C9
:1015000040014161606BA0B11B494163606BFEF714
:101510008DFF002810D0606B416BBDE8704008471C
:10152000830610D58B060ED52046BDE8704000F02E
:10153000FCBA2046FFF799FF70BD2046FFF795FFE4
:101540000020E06370BD030606D50B0604D52046D7
:10155000BDE8704000F090BB4006F3D54806F1D5D9
:10156000D168204621F04001D160202184F8391053
:1015700000F0C1F870BD0000FF1A000870B504004B
:1015800004D094F83900002510B106E0012070BDA8
:1015900084F83850204600F023F8242084F83900DD
:1015A0002068C16821F40051C160204600F008FBAA
:1015B0002068016921F4904101612068416921F0AE
:1015C0002A0141612068C16841F40051C160E563AE
:1015D000202084F8390084F83A00002070BD000013
:1015E000F0B585B0002400940194029403943B4923
:1015F000394F03684E1502200322394DBB4218D1E2
:101600008B6943F480438B618B6903F480430493BB
:101610008B6943F004038B61896901F00401CDE912
:101620000321CDE9006069462846FEF75DFF2815D5
:101630001BE02C4FBB4221D1CB6943F40033CB617B
:10164000CB6903F4003304938B6943F004038B618B
:101650008969039201F0040104910621CDE900108B
:1016600069462846FEF740FF0820CDE90004694698
:1016700028460294FEF738FF05B0F0BD1A4DAB4284
:10168000FAD1CB6943F48023CB61CB6903F4802387
:1016900004938B6943F020038B618969134D01F03A
:1016A000200104914FF4A061CDE900100392694636
:1016B0002846FEF719FFCDE90064694628460294E2
:1016C000FEF712FF0A48416821F0300141F0E06165
:1016D00041F030014160CFE7003801400010024086
:1016E0000008014000440040004800400014014050
:1016F0000000014070477047FEE700003EB500243F
:101700000D480094019402940A49846001600473B6
:101710000475012505614FF460214460C161FEF745
:10172000CBFD0820CDE90005694602940248FEF78A
:1017300045FD3EBD00240140140000202DE9F04F7E
:1017400085B000245C48009401940294039481695C
:1017500041F040018161816901F04001049181699A
:1017600041F010018161816901F0100104918169EA
:1017700041F004018161816901F0040104918169F2
:1017800041F008018161816901F0080104918169DA
:1017900041F0200181618069DFF820B100F0200074
:1017A000049001227F215846FEF78EFFDFF810A13A
:1017B0004FF60F46012231465046FEF785FF48F2AC
:1017C0007108012241463F48FEF77EFF4FF48859D9
:1017D000002249463C48FEF777FF012238213A486B
:1017E000FEF772FF01257F20CDE900050327CDE933
:1017F000025769465846FEF777FECDE90065CDE908
:10180000025769465046FEF76FFECDE90085CDE9E7
:10181000025769462B48FEF767FE4FF4CC5002266C
:101820008DE8510069462748FEF75EFE4FF47C7054
:101830008DE8510069465046FEF756FE06208DE8B9
:10184000510069462048FEF74FFE4FF680708DE844
:10185000510069465846FEF747FECDF800900396C2
:10186000CDE9015469461848FEF73EFEE802CDE98D
:101870000004DFF85880694640460294FEF734FEC3
:101880004FF2FF008DE8510069464046FEF72CFEFE
:101890003820CDE90005CDE9025769460A48FEF730
:1018A00023FE6802CDE90004694607480294FEF76A
:1018B0001BFE05B0BDE8F08F00100240001801408B
:1018C0000010014000080140000C014000140140DC
:1018D0000C480B494FF4007201604FF48271416073
:1018E00000218160C1600161C0E905122822C0E9C0
:1018F0000721416281620A21C162FFF785BB0000B6
:1019000000380040EC00002010B586B000241248DA
:10191000009401940294039404940E490594016088
:101920004821C0E901144CF25031C0E9031444616C
:101930008461FFF718FC4FF4805000906946064818
:10194000FFF75BFC049404A903480594FFF7EAFB46
:1019500006B010BD002C014044010020FEE7704796
:1019600070477047FEF7C2BF30B593B02821684674
:10197000FEF7DFFB14210AA8FEF7DBFB00240120A1
:101980000F9410941194010412948DE813000490A4
:101990004FF4E010CDE90810022507956846FFF7DF
:1019A000A3F90F20CDE90A056802CDE90C40022118
:1019B0000AA80E94FFF7ACF8A80311900F950FA892
:1019C000FFF730F813B030BD0D48016841F0010158
:1019D000016041680B4A1140416001680A4A1140A8
:1019E0000160016821F480210160416821F4FE0159
:1019F00041604FF41F0181600449C00308607047D3
:101A0000001002400000FFF8FFFFF6FE08ED00E0C6
:101A10000148FFF75EBC0000440100200148FFF7C9
:101A200058BC000044010020F0B50268164B174C6A
:101A3000174D4FF08047984205D0B84203D0A042DE
:101A400001D0A84203D122F070064A68324398427E
:101A500005D0B84203D0A04201D0A84203D122F45D
:101A60004074CA6822434C6922F08002224302601B
:101A70008A68C2620A688262984201D10969016378
:101A800001214161F0BD0000002C01400004004034
:101A90000008004010B5846842EA032224F47F4421
:101AA0000A432243826010BD826822F070020A431A
:101AB00042F007018160704710B5036A046A24F0A0
:101AC00001040462846924F0F00444EA021423F05F
:101AD0000A020A438461026210BD10B5036A23F052
:101AE000100303628369046A23F4704343EA0232F9
:101AF00024F0A00343EA01118261016210BD10B518
:101B0000406A0021C185C184FFF7AFFC10BD0168A8
:101B1000CA6822F49072CA6001684A6922F0010220
:101B20004A61202180F83A10704710B590F83A10B9
:101B3000222901D0022010BD8168B1F5805F11D04B
:101B40000169002901681FD0496801F07F03816A9B
:101B50004A1C82620B70C18D491E0904090CC185A3
:101B600018D02BE00269816A002A0268526805D009
:101B7000D2B20A80816A491C8162ECE7C2F3080292
:101B80000A80816A891CF7E74A68816A4B1C836274
:101B90000A70E0E70168CA6822F02002CA600168A2
:101BA000CA6822F48072CA6001684A6922F00102A0
:101BB0004A61202180F83A10FFF79CFD002010BDFB
:101BC0002DE9F041044600680169E26821F44051C2
:101BD000114301612169A0680843616908432168D4
:101BE000CA6841F20C639A430243CA6020684169A3
:101BF000A26921F44071114341611E4920686425A6
:101C00003226884202D1FFF729F801E0FFF716F8E3
:101C100000EBC00101EB001160686FF01807800055
:101C2000B1FBF0F2B2FBF5F2B1FBF0F37A4303EB58
:101C30008202B1FBF0F306EB0212B2FBF5F2B3FB4A
:101C4000F5F302F0F00202EB0312B1FBF0F3B1FB8B
:101C5000F0F0B0FBF5F0784303EB800006EB0010EA
:101C6000B0FBF5F0216800F00F0010448860BDE87B
:101C7000F08100000038014090F83910212901D08E
:101C8000022070478168B1F5805F016A0BD04A1C61
:101C90000262026809785160C18C491E0904090C6E
:101CA000C1840ED017E009880268C1F308015160B1
:101CB00001690029016A02D0491C0162ECE7891C14
:101CC000FBE70168CA6822F08002CA600068C16848
:101CD00041F04001C1600020704700000148FFF75B
:101CE000C5BB0000C40100200148FFF7BFBB0000D6
:101CF00004020020FEE70907090E002804DB00F1BA
:101D0000E02080F80014704700F00F0000F1E020A0
:101D100080F8141D704702E008C8121F08C1002A8D
:101D2000FAD170477047002001E001C1121F002A5C
:101D3000FBD17047FEF7E2FDFFF716FEFFF7FEFC52
:101D4000FFF7DCFC37483649374D00240160C0E915
:101D500001544FF48048C0E9034844618461C46180
:101D60000462FEF7BDFCFFF7B3FD31482F494FF485
:101D7000E1360160C0E901640C27C460C0E9044792
:101D80008461C461FFF7FAFB29482A4940300160A9
:101D9000C0E90164C460C0E904478915C0E90614BC
:101DA000FFF7ECFB2248244980300160C0E9016460
:101DB000C460C0E904478461C461FFF7DFFB1948D0
:101DC0001E4954300160C0E90154C0E90348446130
:101DD0008461C4610462FEF783FCFFF795FD002275
:101DE00002212620FEF7ECFD2620FEF7DBFD032274
:101DF00011462720FEF7E4FD2720FEF7D3FD03223E
:101E000002211920FEF7DCFD1920FEF7CBFD084862
:101E10004038FFF7E1F90520FEF754FBFBE700002F
:101E20000054004044000020A0860100003801401A
:101E30008401002000440040004800400058004059
:101E4000000000000000000001020304060708096A
:101E50000000000001020304781E000800000020BA
:101E600014000000161D00088C1E0008140000203D
:101E700034060000261D00080100000010000000CC
:0C1E800000000000000000000024F4003E
:04000005080000ED02
:00000001FF
